{
	"Contracts/practical2.sol": {
		"StateOverwrite": {
			"abi": [
				{
					"anonymous": false,
					"inputs": [
						{
							"indexed": false,
							"internalType": "uint256",
							"name": "oldValue",
							"type": "uint256"
						},
						{
							"indexed": false,
							"internalType": "uint256",
							"name": "newValue",
							"type": "uint256"
						}
					],
					"name": "NumberUpdated",
					"type": "event"
				},
				{
					"inputs": [],
					"name": "number",
					"outputs": [
						{
							"internalType": "uint256",
							"name": "",
							"type": "uint256"
						}
					],
					"stateMutability": "view",
					"type": "function"
				},
				{
					"inputs": [],
					"name": "previousNumber",
					"outputs": [
						{
							"internalType": "uint256",
							"name": "",
							"type": "uint256"
						}
					],
					"stateMutability": "view",
					"type": "function"
				},
				{
					"inputs": [
						{
							"internalType": "uint256",
							"name": "_newNumber",
							"type": "uint256"
						}
					],
					"name": "updateNumber",
					"outputs": [],
					"stateMutability": "nonpayable",
					"type": "function"
				}
			],
			"devdoc": {
				"kind": "dev",
				"methods": {},
				"version": 1
			},
			"evm": {
				"assembly": "    /* \"Contracts/practical2.sol\":8495:8816  contract StateOverwrite {... */\n  mstore(0x40, 0x80)\n  callvalue\n  dup1\n  iszero\n  tag_1\n  jumpi\n  revert(0x00, 0x00)\ntag_1:\n  pop\n  dataSize(sub_0)\n  dup1\n  dataOffset(sub_0)\n  0x00\n  codecopy\n  0x00\n  return\nstop\n\nsub_0: assembly {\n        /* \"Contracts/practical2.sol\":8495:8816  contract StateOverwrite {... */\n      mstore(0x40, 0x80)\n      callvalue\n      dup1\n      iszero\n      tag_1\n      jumpi\n      revert(0x00, 0x00)\n    tag_1:\n      pop\n      jumpi(tag_2, lt(calldatasize, 0x04))\n      shr(0xe0, calldataload(0x00))\n      dup1\n      0x1db05a88\n      eq\n      tag_3\n      jumpi\n      dup1\n      0x69db0488\n      eq\n      tag_4\n      jumpi\n      dup1\n      0x8381f58a\n      eq\n      tag_5\n      jumpi\n    tag_2:\n      revert(0x00, 0x00)\n        /* \"Contracts/practical2.sol\":8655:8809  function updateNumber(uint256 _newNumber) public {... */\n    tag_3:\n      tag_6\n      0x04\n      dup1\n      calldatasize\n      sub\n      dup2\n      add\n      swap1\n      tag_7\n      swap2\n      swap1\n      tag_8\n      jump\t// in\n    tag_7:\n      tag_9\n      jump\t// in\n    tag_6:\n      stop\n        /* \"Contracts/practical2.sol\":8548:8577  uint256 public previousNumber */\n    tag_4:\n      tag_10\n      tag_11\n      jump\t// in\n    tag_10:\n      mload(0x40)\n      tag_12\n      swap2\n      swap1\n      tag_13\n      jump\t// in\n    tag_12:\n      mload(0x40)\n      dup1\n      swap2\n      sub\n      swap1\n      return\n        /* \"Contracts/practical2.sol\":8524:8545  uint256 public number */\n    tag_5:\n      tag_14\n      tag_15\n      jump\t// in\n    tag_14:\n      mload(0x40)\n      tag_16\n      swap2\n      swap1\n      tag_13\n      jump\t// in\n    tag_16:\n      mload(0x40)\n      dup1\n      swap2\n      sub\n      swap1\n      return\n        /* \"Contracts/practical2.sol\":8655:8809  function updateNumber(uint256 _newNumber) public {... */\n    tag_9:\n        /* \"Contracts/practical2.sol\":8716:8749  NumberUpdated(number, _newNumber) */\n      0x32853224b52c8c1c4c85ba01615b18e43506c8be20fcbb909a81ca220b3ee71f\n        /* \"Contracts/practical2.sol\":8730:8736  number */\n      sload(0x00)\n        /* \"Contracts/practical2.sol\":8738:8748  _newNumber */\n      dup3\n        /* \"Contracts/practical2.sol\":8716:8749  NumberUpdated(number, _newNumber) */\n      mload(0x40)\n      tag_18\n      swap3\n      swap2\n      swap1\n      tag_19\n      jump\t// in\n    tag_18:\n      mload(0x40)\n      dup1\n      swap2\n      sub\n      swap1\n      log1\n        /* \"Contracts/practical2.sol\":8773:8779  number */\n      sload(0x00)\n        /* \"Contracts/practical2.sol\":8756:8770  previousNumber */\n      0x01\n        /* \"Contracts/practical2.sol\":8756:8779  previousNumber = number */\n      dup2\n      swap1\n      sstore\n      pop\n        /* \"Contracts/practical2.sol\":8795:8805  _newNumber */\n      dup1\n        /* \"Contracts/practical2.sol\":8786:8792  number */\n      0x00\n        /* \"Contracts/practical2.sol\":8786:8805  number = _newNumber */\n      dup2\n      swap1\n      sstore\n      pop\n        /* \"Contracts/practical2.sol\":8655:8809  function updateNumber(uint256 _newNumber) public {... */\n      pop\n      jump\t// out\n        /* \"Contracts/practical2.sol\":8548:8577  uint256 public previousNumber */\n    tag_11:\n      sload(0x01)\n      dup2\n      jump\t// out\n        /* \"Contracts/practical2.sol\":8524:8545  uint256 public number */\n    tag_15:\n      sload(0x00)\n      dup2\n      jump\t// out\n        /* \"#utility.yul\":88:205   */\n    tag_21:\n        /* \"#utility.yul\":197:198   */\n      0x00\n        /* \"#utility.yul\":194:195   */\n      0x00\n        /* \"#utility.yul\":187:199   */\n      revert\n        /* \"#utility.yul\":334:411   */\n    tag_23:\n        /* \"#utility.yul\":371:378   */\n      0x00\n        /* \"#utility.yul\":400:405   */\n      dup2\n        /* \"#utility.yul\":389:405   */\n      swap1\n      pop\n        /* \"#utility.yul\":334:411   */\n      swap2\n      swap1\n      pop\n      jump\t// out\n        /* \"#utility.yul\":417:539   */\n    tag_24:\n        /* \"#utility.yul\":490:514   */\n      tag_33\n        /* \"#utility.yul\":508:513   */\n      dup2\n        /* \"#utility.yul\":490:514   */\n      tag_23\n      jump\t// in\n    tag_33:\n        /* \"#utility.yul\":483:488   */\n      dup2\n        /* \"#utility.yul\":480:515   */\n      eq\n        /* \"#utility.yul\":470:533   */\n      tag_34\n      jumpi\n        /* \"#utility.yul\":529:530   */\n      0x00\n        /* \"#utility.yul\":526:527   */\n      0x00\n        /* \"#utility.yul\":519:531   */\n      revert\n        /* \"#utility.yul\":470:533   */\n    tag_34:\n        /* \"#utility.yul\":417:539   */\n      pop\n      jump\t// out\n        /* \"#utility.yul\":545:684   */\n    tag_25:\n        /* \"#utility.yul\":591:596   */\n      0x00\n        /* \"#utility.yul\":629:635   */\n      dup2\n        /* \"#utility.yul\":616:636   */\n      calldataload\n        /* \"#utility.yul\":607:636   */\n      swap1\n      pop\n        /* \"#utility.yul\":645:678   */\n      tag_36\n        /* \"#utility.yul\":672:677   */\n      dup2\n        /* \"#utility.yul\":645:678   */\n      tag_24\n      jump\t// in\n    tag_36:\n        /* \"#utility.yul\":545:684   */\n      swap3\n      swap2\n      pop\n      pop\n      jump\t// out\n        /* \"#utility.yul\":690:1019   */\n    tag_8:\n        /* \"#utility.yul\":749:755   */\n      0x00\n        /* \"#utility.yul\":798:800   */\n      0x20\n        /* \"#utility.yul\":786:795   */\n      dup3\n        /* \"#utility.yul\":777:784   */\n      dup5\n        /* \"#utility.yul\":773:796   */\n      sub\n        /* \"#utility.yul\":769:801   */\n      slt\n        /* \"#utility.yul\":766:885   */\n      iszero\n      tag_38\n      jumpi\n        /* \"#utility.yul\":804:883   */\n      tag_39\n      tag_21\n      jump\t// in\n    tag_39:\n        /* \"#utility.yul\":766:885   */\n    tag_38:\n        /* \"#utility.yul\":924:925   */\n      0x00\n        /* \"#utility.yul\":949:1002   */\n      tag_40\n        /* \"#utility.yul\":994:1001   */\n      dup5\n        /* \"#utility.yul\":985:991   */\n      dup3\n        /* \"#utility.yul\":974:983   */\n      dup6\n        /* \"#utility.yul\":970:992   */\n      add\n        /* \"#utility.yul\":949:1002   */\n      tag_25\n      jump\t// in\n    tag_40:\n        /* \"#utility.yul\":939:1002   */\n      swap2\n      pop\n        /* \"#utility.yul\":895:1012   */\n      pop\n        /* \"#utility.yul\":690:1019   */\n      swap3\n      swap2\n      pop\n      pop\n      jump\t// out\n        /* \"#utility.yul\":1025:1143   */\n    tag_26:\n        /* \"#utility.yul\":1112:1136   */\n      tag_42\n        /* \"#utility.yul\":1130:1135   */\n      dup2\n        /* \"#utility.yul\":1112:1136   */\n      tag_23\n      jump\t// in\n    tag_42:\n        /* \"#utility.yul\":1107:1110   */\n      dup3\n        /* \"#utility.yul\":1100:1137   */\n      mstore\n        /* \"#utility.yul\":1025:1143   */\n      pop\n      pop\n      jump\t// out\n        /* \"#utility.yul\":1149:1371   */\n    tag_13:\n        /* \"#utility.yul\":1242:1246   */\n      0x00\n        /* \"#utility.yul\":1280:1282   */\n      0x20\n        /* \"#utility.yul\":1269:1278   */\n      dup3\n        /* \"#utility.yul\":1265:1283   */\n      add\n        /* \"#utility.yul\":1257:1283   */\n      swap1\n      pop\n        /* \"#utility.yul\":1293:1364   */\n      tag_44\n        /* \"#utility.yul\":1361:1362   */\n      0x00\n        /* \"#utility.yul\":1350:1359   */\n      dup4\n        /* \"#utility.yul\":1346:1363   */\n      add\n        /* \"#utility.yul\":1337:1343   */\n      dup5\n        /* \"#utility.yul\":1293:1364   */\n      tag_26\n      jump\t// in\n    tag_44:\n        /* \"#utility.yul\":1149:1371   */\n      swap3\n      swap2\n      pop\n      pop\n      jump\t// out\n        /* \"#utility.yul\":1377:1709   */\n    tag_19:\n        /* \"#utility.yul\":1498:1502   */\n      0x00\n        /* \"#utility.yul\":1536:1538   */\n      0x40\n        /* \"#utility.yul\":1525:1534   */\n      dup3\n        /* \"#utility.yul\":1521:1539   */\n      add\n        /* \"#utility.yul\":1513:1539   */\n      swap1\n      pop\n        /* \"#utility.yul\":1549:1620   */\n      tag_46\n        /* \"#utility.yul\":1617:1618   */\n      0x00\n        /* \"#utility.yul\":1606:1615   */\n      dup4\n        /* \"#utility.yul\":1602:1619   */\n      add\n        /* \"#utility.yul\":1593:1599   */\n      dup6\n        /* \"#utility.yul\":1549:1620   */\n      tag_26\n      jump\t// in\n    tag_46:\n        /* \"#utility.yul\":1630:1702   */\n      tag_47\n        /* \"#utility.yul\":1698:1700   */\n      0x20\n        /* \"#utility.yul\":1687:1696   */\n      dup4\n        /* \"#utility.yul\":1683:1701   */\n      add\n        /* \"#utility.yul\":1674:1680   */\n      dup5\n        /* \"#utility.yul\":1630:1702   */\n      tag_26\n      jump\t// in\n    tag_47:\n        /* \"#utility.yul\":1377:1709   */\n      swap4\n      swap3\n      pop\n      pop\n      pop\n      jump\t// out\n\n    auxdata: 0xa2646970667358221220b944a2e8aa62ce52d4e38a67b88383e4dc6b45aa19dae77c0e70f94f76ac13c164736f6c63430008220033\n}\n",
				"bytecode": {
					"linkReferences": {},
					"object": "6080604052348015600e575f5ffd5b506101d88061001c5f395ff3fe608060405234801561000f575f5ffd5b506004361061003f575f3560e01c80631db05a881461004357806369db04881461005f5780638381f58a1461007d575b5f5ffd5b61005d60048036038101906100589190610128565b61009b565b005b6100676100e6565b6040516100749190610162565b60405180910390f35b6100856100ec565b6040516100929190610162565b60405180910390f35b7f32853224b52c8c1c4c85ba01615b18e43506c8be20fcbb909a81ca220b3ee71f5f54826040516100cd92919061017b565b60405180910390a15f54600181905550805f8190555050565b60015481565b5f5481565b5f5ffd5b5f819050919050565b610107816100f5565b8114610111575f5ffd5b50565b5f81359050610122816100fe565b92915050565b5f6020828403121561013d5761013c6100f1565b5b5f61014a84828501610114565b91505092915050565b61015c816100f5565b82525050565b5f6020820190506101755f830184610153565b92915050565b5f60408201905061018e5f830185610153565b61019b6020830184610153565b939250505056fea2646970667358221220b944a2e8aa62ce52d4e38a67b88383e4dc6b45aa19dae77c0e70f94f76ac13c164736f6c63430008220033",
					"opcodes": "PUSH1 0x80 PUSH1 0x40 MSTORE CALLVALUE DUP1 ISZERO PUSH1 0xE JUMPI PUSH0 PUSH0 REVERT JUMPDEST POP PUSH2 0x1D8 DUP1 PUSH2 0x1C PUSH0 CODECOPY PUSH0 RETURN INVALID PUSH1 0x80 PUSH1 0x40 MSTORE CALLVALUE DUP1 ISZERO PUSH2 0xF JUMPI PUSH0 PUSH0 REVERT JUMPDEST POP PUSH1 0x4 CALLDATASIZE LT PUSH2 0x3F JUMPI PUSH0 CALLDATALOAD PUSH1 0xE0 SHR DUP1 PUSH4 0x1DB05A88 EQ PUSH2 0x43 JUMPI DUP1 PUSH4 0x69DB0488 EQ PUSH2 0x5F JUMPI DUP1 PUSH4 0x8381F58A EQ PUSH2 0x7D JUMPI JUMPDEST PUSH0 PUSH0 REVERT JUMPDEST PUSH2 0x5D PUSH1 0x4 DUP1 CALLDATASIZE SUB DUP2 ADD SWAP1 PUSH2 0x58 SWAP2 SWAP1 PUSH2 0x128 JUMP JUMPDEST PUSH2 0x9B JUMP JUMPDEST STOP JUMPDEST PUSH2 0x67 PUSH2 0xE6 JUMP JUMPDEST PUSH1 0x40 MLOAD PUSH2 0x74 SWAP2 SWAP1 PUSH2 0x162 JUMP JUMPDEST PUSH1 0x40 MLOAD DUP1 SWAP2 SUB SWAP1 RETURN JUMPDEST PUSH2 0x85 PUSH2 0xEC JUMP JUMPDEST PUSH1 0x40 MLOAD PUSH2 0x92 SWAP2 SWAP1 PUSH2 0x162 JUMP JUMPDEST PUSH1 0x40 MLOAD DUP1 SWAP2 SUB SWAP1 RETURN JUMPDEST PUSH32 0x32853224B52C8C1C4C85BA01615B18E43506C8BE20FCBB909A81CA220B3EE71F PUSH0 SLOAD DUP3 PUSH1 0x40 MLOAD PUSH2 0xCD SWAP3 SWAP2 SWAP1 PUSH2 0x17B JUMP JUMPDEST PUSH1 0x40 MLOAD DUP1 SWAP2 SUB SWAP1 LOG1 PUSH0 SLOAD PUSH1 0x1 DUP2 SWAP1 SSTORE POP DUP1 PUSH0 DUP2 SWAP1 SSTORE POP POP JUMP JUMPDEST PUSH1 0x1 SLOAD DUP2 JUMP JUMPDEST PUSH0 SLOAD DUP2 JUMP JUMPDEST PUSH0 PUSH0 REVERT JUMPDEST PUSH0 DUP2 SWAP1 POP SWAP2 SWAP1 POP JUMP JUMPDEST PUSH2 0x107 DUP2 PUSH2 0xF5 JUMP JUMPDEST DUP2 EQ PUSH2 0x111 JUMPI PUSH0 PUSH0 REVERT JUMPDEST POP JUMP JUMPDEST PUSH0 DUP2 CALLDATALOAD SWAP1 POP PUSH2 0x122 DUP2 PUSH2 0xFE JUMP JUMPDEST SWAP3 SWAP2 POP POP JUMP JUMPDEST PUSH0 PUSH1 0x20 DUP3 DUP5 SUB SLT ISZERO PUSH2 0x13D JUMPI PUSH2 0x13C PUSH2 0xF1 JUMP JUMPDEST JUMPDEST PUSH0 PUSH2 0x14A DUP5 DUP3 DUP6 ADD PUSH2 0x114 JUMP JUMPDEST SWAP2 POP POP SWAP3 SWAP2 POP POP JUMP JUMPDEST PUSH2 0x15C DUP2 PUSH2 0xF5 JUMP JUMPDEST DUP3 MSTORE POP POP JUMP JUMPDEST PUSH0 PUSH1 0x20 DUP3 ADD SWAP1 POP PUSH2 0x175 PUSH0 DUP4 ADD DUP5 PUSH2 0x153 JUMP JUMPDEST SWAP3 SWAP2 POP POP JUMP JUMPDEST PUSH0 PUSH1 0x40 DUP3 ADD SWAP1 POP PUSH2 0x18E PUSH0 DUP4 ADD DUP6 PUSH2 0x153 JUMP JUMPDEST PUSH2 0x19B PUSH1 0x20 DUP4 ADD DUP5 PUSH2 0x153 JUMP JUMPDEST SWAP4 SWAP3 POP POP POP JUMP INVALID LOG2 PUSH5 0x6970667358 0x22 SLT KECCAK256 0xB9 PREVRANDAO LOG2 0xE8 0xAA PUSH3 0xCE52D4 CALLF 0x8A67 0xB8 DUP4 DUP4 RETF 0xDC PUSH12 0x45AA19DAE77C0E70F94F76AC SGT 0xC1 PUSH5 0x736F6C6343 STOP ADDMOD 0x22 STOP CALLER "
				},
				"gasEstimates": {
					"creation": {
						"codeDepositCost": "94400",
						"executionCost": "139",
						"totalCost": "94539"
					},
					"external": {
						"number()": "2446",
						"previousNumber()": "2425",
						"updateNumber(uint256)": "infinite"
					}
				},
				"methodIdentifiers": {
					"number()": "8381f58a",
					"previousNumber()": "69db0488",
					"updateNumber(uint256)": "1db05a88"
				}
			},
			"storageLayout": {
				"storage": [
					{
						"astId": 38,
						"contract": "Contracts/practical2.sol:StateOverwrite",
						"label": "number",
						"offset": 0,
						"slot": "0",
						"type": "t_uint256"
					},
					{
						"astId": 40,
						"contract": "Contracts/practical2.sol:StateOverwrite",
						"label": "previousNumber",
						"offset": 0,
						"slot": "1",
						"type": "t_uint256"
					}
				],
				"types": {
					"t_uint256": {
						"encoding": "inplace",
						"label": "uint256",
						"numberOfBytes": "32"
					}
				}
			},
			"userdoc": {
				"kind": "user",
				"methods": {},
				"version": 1
			}
		}
	}
}