{
	"Contracts/practical8.sol": {
		"DynamicArrayGrowthv": {
			"abi": [
				{
					"inputs": [],
					"name": "MAX_LENGTH",
					"outputs": [
						{
							"internalType": "uint256",
							"name": "",
							"type": "uint256"
						}
					],
					"stateMutability": "view",
					"type": "function"
				},
				{
					"inputs": [
						{
							"internalType": "uint256",
							"name": "_value1",
							"type": "uint256"
						},
						{
							"internalType": "uint256",
							"name": "_value2",
							"type": "uint256"
						},
						{
							"internalType": "uint256",
							"name": "_value3",
							"type": "uint256"
						}
					],
					"name": "addMultipleValues",
					"outputs": [],
					"stateMutability": "nonpayable",
					"type": "function"
				},
				{
					"inputs": [],
					"name": "getLength",
					"outputs": [
						{
							"internalType": "uint256",
							"name": "",
							"type": "uint256"
						}
					],
					"stateMutability": "view",
					"type": "function"
				},
				{
					"inputs": [
						{
							"internalType": "uint256",
							"name": "_index",
							"type": "uint256"
						}
					],
					"name": "getNumber",
					"outputs": [
						{
							"internalType": "uint256",
							"name": "",
							"type": "uint256"
						}
					],
					"stateMutability": "view",
					"type": "function"
				},
				{
					"inputs": [
						{
							"internalType": "uint256",
							"name": "",
							"type": "uint256"
						}
					],
					"name": "numbers",
					"outputs": [
						{
							"internalType": "uint256",
							"name": "",
							"type": "uint256"
						}
					],
					"stateMutability": "view",
					"type": "function"
				}
			],
			"devdoc": {
				"kind": "dev",
				"methods": {},
				"version": 1
			},
			"evm": {
				"assembly": "    /* \"Contracts/practical8.sol\":10784:11597  contract DynamicArrayGrowthv {... */\n  mstore(0x40, 0x80)\n  callvalue\n  dup1\n  iszero\n  tag_1\n  jumpi\n  revert(0x00, 0x00)\ntag_1:\n  pop\n  dataSize(sub_0)\n  dup1\n  dataOffset(sub_0)\n  0x00\n  codecopy\n  0x00\n  return\nstop\n\nsub_0: assembly {\n        /* \"Contracts/practical8.sol\":10784:11597  contract DynamicArrayGrowthv {... */\n      mstore(0x40, 0x80)\n      callvalue\n      dup1\n      iszero\n      tag_1\n      jumpi\n      revert(0x00, 0x00)\n    tag_1:\n      pop\n      jumpi(tag_2, lt(calldatasize, 0x04))\n      shr(0xe0, calldataload(0x00))\n      dup1\n      0x08be540b\n      eq\n      tag_3\n      jumpi\n      dup1\n      0xa6f9885c\n      eq\n      tag_4\n      jumpi\n      dup1\n      0xbe1c766b\n      eq\n      tag_5\n      jumpi\n      dup1\n      0xd39fa233\n      eq\n      tag_6\n      jumpi\n      dup1\n      0xfc563658\n      eq\n      tag_7\n      jumpi\n    tag_2:\n      revert(0x00, 0x00)\n        /* \"Contracts/practical8.sol\":10901:11349  function addMultipleValues(... */\n    tag_3:\n      tag_8\n      0x04\n      dup1\n      calldatasize\n      sub\n      dup2\n      add\n      swap1\n      tag_9\n      swap2\n      swap1\n      tag_10\n      jump\t// in\n    tag_9:\n      tag_11\n      jump\t// in\n    tag_8:\n      stop\n        /* \"Contracts/practical8.sol\":10853:10892  uint256 public constant MAX_LENGTH = 10 */\n    tag_4:\n      tag_12\n      tag_13\n      jump\t// in\n    tag_12:\n      mload(0x40)\n      tag_14\n      swap2\n      swap1\n      tag_15\n      jump\t// in\n    tag_14:\n      mload(0x40)\n      dup1\n      swap2\n      sub\n      swap1\n      return\n        /* \"Contracts/practical8.sol\":11503:11594  function getLength() public view returns (uint256) {... */\n    tag_5:\n      tag_16\n      tag_17\n      jump\t// in\n    tag_16:\n      mload(0x40)\n      tag_18\n      swap2\n      swap1\n      tag_15\n      jump\t// in\n    tag_18:\n      mload(0x40)\n      dup1\n      swap2\n      sub\n      swap1\n      return\n        /* \"Contracts/practical8.sol\":10822:10846  uint256[] public numbers */\n    tag_6:\n      tag_19\n      0x04\n      dup1\n      calldatasize\n      sub\n      dup2\n      add\n      swap1\n      tag_20\n      swap2\n      swap1\n      tag_21\n      jump\t// in\n    tag_20:\n      tag_22\n      jump\t// in\n    tag_19:\n      mload(0x40)\n      tag_23\n      swap2\n      swap1\n      tag_15\n      jump\t// in\n    tag_23:\n      mload(0x40)\n      dup1\n      swap2\n      sub\n      swap1\n      return\n        /* \"Contracts/practical8.sol\":11357:11495  function getNumber(uint256 _index)... */\n    tag_7:\n      tag_24\n      0x04\n      dup1\n      calldatasize\n      sub\n      dup2\n      add\n      swap1\n      tag_25\n      swap2\n      swap1\n      tag_21\n      jump\t// in\n    tag_25:\n      tag_26\n      jump\t// in\n    tag_24:\n      mload(0x40)\n      tag_27\n      swap2\n      swap1\n      tag_15\n      jump\t// in\n    tag_27:\n      mload(0x40)\n      dup1\n      swap2\n      sub\n      swap1\n      return\n        /* \"Contracts/practical8.sol\":10901:11349  function addMultipleValues(... */\n    tag_11:\n        /* \"Contracts/practical8.sol\":10890:10892  10 */\n      0x0a\n        /* \"Contracts/practical8.sol\":11041:11048  numbers */\n      0x00\n        /* \"Contracts/practical8.sol\":11041:11055  numbers.length */\n      dup1\n      sload\n      swap1\n      pop\n        /* \"Contracts/practical8.sol\":11041:11068  numbers.length < MAX_LENGTH */\n      lt\n        /* \"Contracts/practical8.sol\":11033:11095  require(numbers.length < MAX_LENGTH, \"Max array size reached\") */\n      tag_29\n      jumpi\n      mload(0x40)\n      0x08c379a000000000000000000000000000000000000000000000000000000000\n      dup2\n      mstore\n      0x04\n      add\n      tag_30\n      swap1\n      tag_31\n      jump\t// in\n    tag_30:\n      mload(0x40)\n      dup1\n      swap2\n      sub\n      swap1\n      revert\n    tag_29:\n        /* \"Contracts/practical8.sol\":11106:11113  numbers */\n      0x00\n        /* \"Contracts/practical8.sol\":11119:11126  _value1 */\n      dup4\n        /* \"Contracts/practical8.sol\":11106:11127  numbers.push(_value1) */\n      swap1\n      dup1\n      0x01\n      dup2\n      sload\n      add\n      dup1\n      dup3\n      sstore\n      dup1\n      swap2\n      pop\n      pop\n      0x01\n      swap1\n      sub\n      swap1\n      0x00\n      mstore\n      keccak256(0x00, 0x20)\n      add\n      0x00\n      swap1\n      swap2\n      swap1\n      swap2\n      swap1\n      swap2\n      pop\n      sstore\n        /* \"Contracts/practical8.sol\":10890:10892  10 */\n      0x0a\n        /* \"Contracts/practical8.sol\":11148:11155  numbers */\n      0x00\n        /* \"Contracts/practical8.sol\":11148:11162  numbers.length */\n      dup1\n      sload\n      swap1\n      pop\n        /* \"Contracts/practical8.sol\":11148:11175  numbers.length < MAX_LENGTH */\n      lt\n        /* \"Contracts/practical8.sol\":11140:11202  require(numbers.length < MAX_LENGTH, \"Max array size reached\") */\n      tag_33\n      jumpi\n      mload(0x40)\n      0x08c379a000000000000000000000000000000000000000000000000000000000\n      dup2\n      mstore\n      0x04\n      add\n      tag_34\n      swap1\n      tag_31\n      jump\t// in\n    tag_34:\n      mload(0x40)\n      dup1\n      swap2\n      sub\n      swap1\n      revert\n    tag_33:\n        /* \"Contracts/practical8.sol\":11213:11220  numbers */\n      0x00\n        /* \"Contracts/practical8.sol\":11226:11233  _value2 */\n      dup3\n        /* \"Contracts/practical8.sol\":11213:11234  numbers.push(_value2) */\n      swap1\n      dup1\n      0x01\n      dup2\n      sload\n      add\n      dup1\n      dup3\n      sstore\n      dup1\n      swap2\n      pop\n      pop\n      0x01\n      swap1\n      sub\n      swap1\n      0x00\n      mstore\n      keccak256(0x00, 0x20)\n      add\n      0x00\n      swap1\n      swap2\n      swap1\n      swap2\n      swap1\n      swap2\n      pop\n      sstore\n        /* \"Contracts/practical8.sol\":10890:10892  10 */\n      0x0a\n        /* \"Contracts/practical8.sol\":11255:11262  numbers */\n      0x00\n        /* \"Contracts/practical8.sol\":11255:11269  numbers.length */\n      dup1\n      sload\n      swap1\n      pop\n        /* \"Contracts/practical8.sol\":11255:11282  numbers.length < MAX_LENGTH */\n      lt\n        /* \"Contracts/practical8.sol\":11247:11309  require(numbers.length < MAX_LENGTH, \"Max array size reached\") */\n      tag_36\n      jumpi\n      mload(0x40)\n      0x08c379a000000000000000000000000000000000000000000000000000000000\n      dup2\n      mstore\n      0x04\n      add\n      tag_37\n      swap1\n      tag_31\n      jump\t// in\n    tag_37:\n      mload(0x40)\n      dup1\n      swap2\n      sub\n      swap1\n      revert\n    tag_36:\n        /* \"Contracts/practical8.sol\":11320:11327  numbers */\n      0x00\n        /* \"Contracts/practical8.sol\":11333:11340  _value3 */\n      dup2\n        /* \"Contracts/practical8.sol\":11320:11341  numbers.push(_value3) */\n      swap1\n      dup1\n      0x01\n      dup2\n      sload\n      add\n      dup1\n      dup3\n      sstore\n      dup1\n      swap2\n      pop\n      pop\n      0x01\n      swap1\n      sub\n      swap1\n      0x00\n      mstore\n      keccak256(0x00, 0x20)\n      add\n      0x00\n      swap1\n      swap2\n      swap1\n      swap2\n      swap1\n      swap2\n      pop\n      sstore\n        /* \"Contracts/practical8.sol\":10901:11349  function addMultipleValues(... */\n      pop\n      pop\n      pop\n      jump\t// out\n        /* \"Contracts/practical8.sol\":10853:10892  uint256 public constant MAX_LENGTH = 10 */\n    tag_13:\n        /* \"Contracts/practical8.sol\":10890:10892  10 */\n      0x0a\n        /* \"Contracts/practical8.sol\":10853:10892  uint256 public constant MAX_LENGTH = 10 */\n      dup2\n      jump\t// out\n        /* \"Contracts/practical8.sol\":11503:11594  function getLength() public view returns (uint256) {... */\n    tag_17:\n        /* \"Contracts/practical8.sol\":11545:11552  uint256 */\n      0x00\n        /* \"Contracts/practical8.sol\":11572:11579  numbers */\n      0x00\n        /* \"Contracts/practical8.sol\":11572:11586  numbers.length */\n      dup1\n      sload\n      swap1\n      pop\n        /* \"Contracts/practical8.sol\":11565:11586  return numbers.length */\n      swap1\n      pop\n        /* \"Contracts/practical8.sol\":11503:11594  function getLength() public view returns (uint256) {... */\n      swap1\n      jump\t// out\n        /* \"Contracts/practical8.sol\":10822:10846  uint256[] public numbers */\n    tag_22:\n      0x00\n      dup2\n      dup2\n      sload\n      dup2\n      lt\n      tag_40\n      jumpi\n      0x00\n      dup1\n      revert\n    tag_40:\n      swap1\n      0x00\n      mstore\n      keccak256(0x00, 0x20)\n      add\n      0x00\n      swap2\n      pop\n      swap1\n      pop\n      sload\n      dup2\n      jump\t// out\n        /* \"Contracts/practical8.sol\":11357:11495  function getNumber(uint256 _index)... */\n    tag_26:\n        /* \"Contracts/practical8.sol\":11440:11447  uint256 */\n      0x00\n        /* \"Contracts/practical8.sol\":11472:11479  numbers */\n      0x00\n        /* \"Contracts/practical8.sol\":11480:11486  _index */\n      dup3\n        /* \"Contracts/practical8.sol\":11472:11487  numbers[_index] */\n      dup2\n      sload\n      dup2\n      lt\n      tag_43\n      jumpi\n      tag_44\n      tag_45\n      jump\t// in\n    tag_44:\n    tag_43:\n      swap1\n      0x00\n      mstore\n      keccak256(0x00, 0x20)\n      add\n      sload\n        /* \"Contracts/practical8.sol\":11465:11487  return numbers[_index] */\n      swap1\n      pop\n        /* \"Contracts/practical8.sol\":11357:11495  function getNumber(uint256 _index)... */\n      swap2\n      swap1\n      pop\n      jump\t// out\n        /* \"#utility.yul\":88:205   */\n    tag_48:\n        /* \"#utility.yul\":197:198   */\n      0x00\n        /* \"#utility.yul\":194:195   */\n      0x00\n        /* \"#utility.yul\":187:199   */\n      revert\n        /* \"#utility.yul\":334:411   */\n    tag_50:\n        /* \"#utility.yul\":371:378   */\n      0x00\n        /* \"#utility.yul\":400:405   */\n      dup2\n        /* \"#utility.yul\":389:405   */\n      swap1\n      pop\n        /* \"#utility.yul\":334:411   */\n      swap2\n      swap1\n      pop\n      jump\t// out\n        /* \"#utility.yul\":417:539   */\n    tag_51:\n        /* \"#utility.yul\":490:514   */\n      tag_63\n        /* \"#utility.yul\":508:513   */\n      dup2\n        /* \"#utility.yul\":490:514   */\n      tag_50\n      jump\t// in\n    tag_63:\n        /* \"#utility.yul\":483:488   */\n      dup2\n        /* \"#utility.yul\":480:515   */\n      eq\n        /* \"#utility.yul\":470:533   */\n      tag_64\n      jumpi\n        /* \"#utility.yul\":529:530   */\n      0x00\n        /* \"#utility.yul\":526:527   */\n      0x00\n        /* \"#utility.yul\":519:531   */\n      revert\n        /* \"#utility.yul\":470:533   */\n    tag_64:\n        /* \"#utility.yul\":417:539   */\n      pop\n      jump\t// out\n        /* \"#utility.yul\":545:684   */\n    tag_52:\n        /* \"#utility.yul\":591:596   */\n      0x00\n        /* \"#utility.yul\":629:635   */\n      dup2\n        /* \"#utility.yul\":616:636   */\n      calldataload\n        /* \"#utility.yul\":607:636   */\n      swap1\n      pop\n        /* \"#utility.yul\":645:678   */\n      tag_66\n        /* \"#utility.yul\":672:677   */\n      dup2\n        /* \"#utility.yul\":645:678   */\n      tag_51\n      jump\t// in\n    tag_66:\n        /* \"#utility.yul\":545:684   */\n      swap3\n      swap2\n      pop\n      pop\n      jump\t// out\n        /* \"#utility.yul\":690:1309   */\n    tag_10:\n        /* \"#utility.yul\":767:773   */\n      0x00\n        /* \"#utility.yul\":775:781   */\n      0x00\n        /* \"#utility.yul\":783:789   */\n      0x00\n        /* \"#utility.yul\":832:834   */\n      0x60\n        /* \"#utility.yul\":820:829   */\n      dup5\n        /* \"#utility.yul\":811:818   */\n      dup7\n        /* \"#utility.yul\":807:830   */\n      sub\n        /* \"#utility.yul\":803:835   */\n      slt\n        /* \"#utility.yul\":800:919   */\n      iszero\n      tag_68\n      jumpi\n        /* \"#utility.yul\":838:917   */\n      tag_69\n      tag_48\n      jump\t// in\n    tag_69:\n        /* \"#utility.yul\":800:919   */\n    tag_68:\n        /* \"#utility.yul\":958:959   */\n      0x00\n        /* \"#utility.yul\":983:1036   */\n      tag_70\n        /* \"#utility.yul\":1028:1035   */\n      dup7\n        /* \"#utility.yul\":1019:1025   */\n      dup3\n        /* \"#utility.yul\":1008:1017   */\n      dup8\n        /* \"#utility.yul\":1004:1026   */\n      add\n        /* \"#utility.yul\":983:1036   */\n      tag_52\n      jump\t// in\n    tag_70:\n        /* \"#utility.yul\":973:1036   */\n      swap4\n      pop\n        /* \"#utility.yul\":929:1046   */\n      pop\n        /* \"#utility.yul\":1085:1087   */\n      0x20\n        /* \"#utility.yul\":1111:1164   */\n      tag_71\n        /* \"#utility.yul\":1156:1163   */\n      dup7\n        /* \"#utility.yul\":1147:1153   */\n      dup3\n        /* \"#utility.yul\":1136:1145   */\n      dup8\n        /* \"#utility.yul\":1132:1154   */\n      add\n        /* \"#utility.yul\":1111:1164   */\n      tag_52\n      jump\t// in\n    tag_71:\n        /* \"#utility.yul\":1101:1164   */\n      swap3\n      pop\n        /* \"#utility.yul\":1056:1174   */\n      pop\n        /* \"#utility.yul\":1213:1215   */\n      0x40\n        /* \"#utility.yul\":1239:1292   */\n      tag_72\n        /* \"#utility.yul\":1284:1291   */\n      dup7\n        /* \"#utility.yul\":1275:1281   */\n      dup3\n        /* \"#utility.yul\":1264:1273   */\n      dup8\n        /* \"#utility.yul\":1260:1282   */\n      add\n        /* \"#utility.yul\":1239:1292   */\n      tag_52\n      jump\t// in\n    tag_72:\n        /* \"#utility.yul\":1229:1292   */\n      swap2\n      pop\n        /* \"#utility.yul\":1184:1302   */\n      pop\n        /* \"#utility.yul\":690:1309   */\n      swap3\n      pop\n      swap3\n      pop\n      swap3\n      jump\t// out\n        /* \"#utility.yul\":1315:1433   */\n    tag_53:\n        /* \"#utility.yul\":1402:1426   */\n      tag_74\n        /* \"#utility.yul\":1420:1425   */\n      dup2\n        /* \"#utility.yul\":1402:1426   */\n      tag_50\n      jump\t// in\n    tag_74:\n        /* \"#utility.yul\":1397:1400   */\n      dup3\n        /* \"#utility.yul\":1390:1427   */\n      mstore\n        /* \"#utility.yul\":1315:1433   */\n      pop\n      pop\n      jump\t// out\n        /* \"#utility.yul\":1439:1661   */\n    tag_15:\n        /* \"#utility.yul\":1532:1536   */\n      0x00\n        /* \"#utility.yul\":1570:1572   */\n      0x20\n        /* \"#utility.yul\":1559:1568   */\n      dup3\n        /* \"#utility.yul\":1555:1573   */\n      add\n        /* \"#utility.yul\":1547:1573   */\n      swap1\n      pop\n        /* \"#utility.yul\":1583:1654   */\n      tag_76\n        /* \"#utility.yul\":1651:1652   */\n      0x00\n        /* \"#utility.yul\":1640:1649   */\n      dup4\n        /* \"#utility.yul\":1636:1653   */\n      add\n        /* \"#utility.yul\":1627:1633   */\n      dup5\n        /* \"#utility.yul\":1583:1654   */\n      tag_53\n      jump\t// in\n    tag_76:\n        /* \"#utility.yul\":1439:1661   */\n      swap3\n      swap2\n      pop\n      pop\n      jump\t// out\n        /* \"#utility.yul\":1667:1996   */\n    tag_21:\n        /* \"#utility.yul\":1726:1732   */\n      0x00\n        /* \"#utility.yul\":1775:1777   */\n      0x20\n        /* \"#utility.yul\":1763:1772   */\n      dup3\n        /* \"#utility.yul\":1754:1761   */\n      dup5\n        /* \"#utility.yul\":1750:1773   */\n      sub\n        /* \"#utility.yul\":1746:1778   */\n      slt\n        /* \"#utility.yul\":1743:1862   */\n      iszero\n      tag_78\n      jumpi\n        /* \"#utility.yul\":1781:1860   */\n      tag_79\n      tag_48\n      jump\t// in\n    tag_79:\n        /* \"#utility.yul\":1743:1862   */\n    tag_78:\n        /* \"#utility.yul\":1901:1902   */\n      0x00\n        /* \"#utility.yul\":1926:1979   */\n      tag_80\n        /* \"#utility.yul\":1971:1978   */\n      dup5\n        /* \"#utility.yul\":1962:1968   */\n      dup3\n        /* \"#utility.yul\":1951:1960   */\n      dup6\n        /* \"#utility.yul\":1947:1969   */\n      add\n        /* \"#utility.yul\":1926:1979   */\n      tag_52\n      jump\t// in\n    tag_80:\n        /* \"#utility.yul\":1916:1979   */\n      swap2\n      pop\n        /* \"#utility.yul\":1872:1989   */\n      pop\n        /* \"#utility.yul\":1667:1996   */\n      swap3\n      swap2\n      pop\n      pop\n      jump\t// out\n        /* \"#utility.yul\":2002:2171   */\n    tag_54:\n        /* \"#utility.yul\":2086:2097   */\n      0x00\n        /* \"#utility.yul\":2120:2126   */\n      dup3\n        /* \"#utility.yul\":2115:2118   */\n      dup3\n        /* \"#utility.yul\":2108:2127   */\n      mstore\n        /* \"#utility.yul\":2160:2164   */\n      0x20\n        /* \"#utility.yul\":2155:2158   */\n      dup3\n        /* \"#utility.yul\":2151:2165   */\n      add\n        /* \"#utility.yul\":2136:2165   */\n      swap1\n      pop\n        /* \"#utility.yul\":2002:2171   */\n      swap3\n      swap2\n      pop\n      pop\n      jump\t// out\n        /* \"#utility.yul\":2177:2349   */\n    tag_55:\n        /* \"#utility.yul\":2317:2341   */\n      0x4d61782061727261792073697a65207265616368656400000000000000000000\n        /* \"#utility.yul\":2313:2314   */\n      0x00\n        /* \"#utility.yul\":2305:2311   */\n      dup3\n        /* \"#utility.yul\":2301:2315   */\n      add\n        /* \"#utility.yul\":2294:2342   */\n      mstore\n        /* \"#utility.yul\":2177:2349   */\n      pop\n      jump\t// out\n        /* \"#utility.yul\":2355:2721   */\n    tag_56:\n        /* \"#utility.yul\":2497:2500   */\n      0x00\n        /* \"#utility.yul\":2518:2585   */\n      tag_84\n        /* \"#utility.yul\":2582:2584   */\n      0x16\n        /* \"#utility.yul\":2577:2580   */\n      dup4\n        /* \"#utility.yul\":2518:2585   */\n      tag_54\n      jump\t// in\n    tag_84:\n        /* \"#utility.yul\":2511:2585   */\n      swap2\n      pop\n        /* \"#utility.yul\":2594:2687   */\n      tag_85\n        /* \"#utility.yul\":2683:2686   */\n      dup3\n        /* \"#utility.yul\":2594:2687   */\n      tag_55\n      jump\t// in\n    tag_85:\n        /* \"#utility.yul\":2712:2714   */\n      0x20\n        /* \"#utility.yul\":2707:2710   */\n      dup3\n        /* \"#utility.yul\":2703:2715   */\n      add\n        /* \"#utility.yul\":2696:2715   */\n      swap1\n      pop\n        /* \"#utility.yul\":2355:2721   */\n      swap2\n      swap1\n      pop\n      jump\t// out\n        /* \"#utility.yul\":2727:3146   */\n    tag_31:\n        /* \"#utility.yul\":2893:2897   */\n      0x00\n        /* \"#utility.yul\":2931:2933   */\n      0x20\n        /* \"#utility.yul\":2920:2929   */\n      dup3\n        /* \"#utility.yul\":2916:2934   */\n      add\n        /* \"#utility.yul\":2908:2934   */\n      swap1\n      pop\n        /* \"#utility.yul\":2980:2989   */\n      dup2\n        /* \"#utility.yul\":2974:2978   */\n      dup2\n        /* \"#utility.yul\":2970:2990   */\n      sub\n        /* \"#utility.yul\":2966:2967   */\n      0x00\n        /* \"#utility.yul\":2955:2964   */\n      dup4\n        /* \"#utility.yul\":2951:2968   */\n      add\n        /* \"#utility.yul\":2944:2991   */\n      mstore\n        /* \"#utility.yul\":3008:3139   */\n      tag_87\n        /* \"#utility.yul\":3134:3138   */\n      dup2\n        /* \"#utility.yul\":3008:3139   */\n      tag_56\n      jump\t// in\n    tag_87:\n        /* \"#utility.yul\":3000:3139   */\n      swap1\n      pop\n        /* \"#utility.yul\":2727:3146   */\n      swap2\n      swap1\n      pop\n      jump\t// out\n        /* \"#utility.yul\":3152:3332   */\n    tag_45:\n        /* \"#utility.yul\":3200:3277   */\n      0x4e487b7100000000000000000000000000000000000000000000000000000000\n        /* \"#utility.yul\":3197:3198   */\n      0x00\n        /* \"#utility.yul\":3190:3278   */\n      mstore\n        /* \"#utility.yul\":3297:3301   */\n      0x32\n        /* \"#utility.yul\":3294:3295   */\n      0x04\n        /* \"#utility.yul\":3287:3302   */\n      mstore\n        /* \"#utility.yul\":3321:3325   */\n      0x24\n        /* \"#utility.yul\":3318:3319   */\n      0x00\n        /* \"#utility.yul\":3311:3326   */\n      revert\n\n    auxdata: 0xa2646970667358221220f32b1bef7735ad9a0700c2a8adc7ed998f94a4c585b473b7109b4706810e360b64736f6c63430008220033\n}\n",
				"bytecode": {
					"linkReferences": {},
					"object": "6080604052348015600e575f5ffd5b506104628061001c5f395ff3fe608060405234801561000f575f5ffd5b5060043610610055575f3560e01c806308be540b14610059578063a6f9885c14610075578063be1c766b14610093578063d39fa233146100b1578063fc563658146100e1575b5f5ffd5b610073600480360381019061006e91906102e4565b610111565b005b61007d61025a565b60405161008a9190610343565b60405180910390f35b61009b61025f565b6040516100a89190610343565b60405180910390f35b6100cb60048036038101906100c6919061035c565b61026a565b6040516100d89190610343565b60405180910390f35b6100fb60048036038101906100f6919061035c565b610289565b6040516101089190610343565b60405180910390f35b600a5f8054905010610158576040517f08c379a000000000000000000000000000000000000000000000000000000000815260040161014f906103e1565b60405180910390fd5b5f83908060018154018082558091505060019003905f5260205f20015f9091909190915055600a5f80549050106101c4576040517f08c379a00000000000000000000000000000000000000000000000000000000081526004016101bb906103e1565b60405180910390fd5b5f82908060018154018082558091505060019003905f5260205f20015f9091909190915055600a5f8054905010610230576040517f08c379a0000000000000000000000000000000000000000000000000000000008152600401610227906103e1565b60405180910390fd5b5f81908060018154018082558091505060019003905f5260205f20015f9091909190915055505050565b600a81565b5f5f80549050905090565b5f8181548110610278575f80fd5b905f5260205f20015f915090505481565b5f5f828154811061029d5761029c6103ff565b5b905f5260205f2001549050919050565b5f5ffd5b5f819050919050565b6102c3816102b1565b81146102cd575f5ffd5b50565b5f813590506102de816102ba565b92915050565b5f5f5f606084860312156102fb576102fa6102ad565b5b5f610308868287016102d0565b9350506020610319868287016102d0565b925050604061032a868287016102d0565b9150509250925092565b61033d816102b1565b82525050565b5f6020820190506103565f830184610334565b92915050565b5f60208284031215610371576103706102ad565b5b5f61037e848285016102d0565b91505092915050565b5f82825260208201905092915050565b7f4d61782061727261792073697a652072656163686564000000000000000000005f82015250565b5f6103cb601683610387565b91506103d682610397565b602082019050919050565b5f6020820190508181035f8301526103f8816103bf565b9050919050565b7f4e487b71000000000000000000000000000000000000000000000000000000005f52603260045260245ffdfea2646970667358221220f32b1bef7735ad9a0700c2a8adc7ed998f94a4c585b473b7109b4706810e360b64736f6c63430008220033",
					"opcodes": "PUSH1 0x80 PUSH1 0x40 MSTORE CALLVALUE DUP1 ISZERO PUSH1 0xE JUMPI PUSH0 PUSH0 REVERT JUMPDEST POP PUSH2 0x462 DUP1 PUSH2 0x1C PUSH0 CODECOPY PUSH0 RETURN INVALID PUSH1 0x80 PUSH1 0x40 MSTORE CALLVALUE DUP1 ISZERO PUSH2 0xF JUMPI PUSH0 PUSH0 REVERT JUMPDEST POP PUSH1 0x4 CALLDATASIZE LT PUSH2 0x55 JUMPI PUSH0 CALLDATALOAD PUSH1 0xE0 SHR DUP1 PUSH4 0x8BE540B EQ PUSH2 0x59 JUMPI DUP1 PUSH4 0xA6F9885C EQ PUSH2 0x75 JUMPI DUP1 PUSH4 0xBE1C766B EQ PUSH2 0x93 JUMPI DUP1 PUSH4 0xD39FA233 EQ PUSH2 0xB1 JUMPI DUP1 PUSH4 0xFC563658 EQ PUSH2 0xE1 JUMPI JUMPDEST PUSH0 PUSH0 REVERT JUMPDEST PUSH2 0x73 PUSH1 0x4 DUP1 CALLDATASIZE SUB DUP2 ADD SWAP1 PUSH2 0x6E SWAP2 SWAP1 PUSH2 0x2E4 JUMP JUMPDEST PUSH2 0x111 JUMP JUMPDEST STOP JUMPDEST PUSH2 0x7D PUSH2 0x25A JUMP JUMPDEST PUSH1 0x40 MLOAD PUSH2 0x8A SWAP2 SWAP1 PUSH2 0x343 JUMP JUMPDEST PUSH1 0x40 MLOAD DUP1 SWAP2 SUB SWAP1 RETURN JUMPDEST PUSH2 0x9B PUSH2 0x25F JUMP JUMPDEST PUSH1 0x40 MLOAD PUSH2 0xA8 SWAP2 SWAP1 PUSH2 0x343 JUMP JUMPDEST PUSH1 0x40 MLOAD DUP1 SWAP2 SUB SWAP1 RETURN JUMPDEST PUSH2 0xCB PUSH1 0x4 DUP1 CALLDATASIZE SUB DUP2 ADD SWAP1 PUSH2 0xC6 SWAP2 SWAP1 PUSH2 0x35C JUMP JUMPDEST PUSH2 0x26A JUMP JUMPDEST PUSH1 0x40 MLOAD PUSH2 0xD8 SWAP2 SWAP1 PUSH2 0x343 JUMP JUMPDEST PUSH1 0x40 MLOAD DUP1 SWAP2 SUB SWAP1 RETURN JUMPDEST PUSH2 0xFB PUSH1 0x4 DUP1 CALLDATASIZE SUB DUP2 ADD SWAP1 PUSH2 0xF6 SWAP2 SWAP1 PUSH2 0x35C JUMP JUMPDEST PUSH2 0x289 JUMP JUMPDEST PUSH1 0x40 MLOAD PUSH2 0x108 SWAP2 SWAP1 PUSH2 0x343 JUMP JUMPDEST PUSH1 0x40 MLOAD DUP1 SWAP2 SUB SWAP1 RETURN JUMPDEST PUSH1 0xA PUSH0 DUP1 SLOAD SWAP1 POP LT PUSH2 0x158 JUMPI PUSH1 0x40 MLOAD PUSH32 0x8C379A000000000000000000000000000000000000000000000000000000000 DUP2 MSTORE PUSH1 0x4 ADD PUSH2 0x14F SWAP1 PUSH2 0x3E1 JUMP JUMPDEST PUSH1 0x40 MLOAD DUP1 SWAP2 SUB SWAP1 REVERT JUMPDEST PUSH0 DUP4 SWAP1 DUP1 PUSH1 0x1 DUP2 SLOAD ADD DUP1 DUP3 SSTORE DUP1 SWAP2 POP POP PUSH1 0x1 SWAP1 SUB SWAP1 PUSH0 MSTORE PUSH1 0x20 PUSH0 KECCAK256 ADD PUSH0 SWAP1 SWAP2 SWAP1 SWAP2 SWAP1 SWAP2 POP SSTORE PUSH1 0xA PUSH0 DUP1 SLOAD SWAP1 POP LT PUSH2 0x1C4 JUMPI PUSH1 0x40 MLOAD PUSH32 0x8C379A000000000000000000000000000000000000000000000000000000000 DUP2 MSTORE PUSH1 0x4 ADD PUSH2 0x1BB SWAP1 PUSH2 0x3E1 JUMP JUMPDEST PUSH1 0x40 MLOAD DUP1 SWAP2 SUB SWAP1 REVERT JUMPDEST PUSH0 DUP3 SWAP1 DUP1 PUSH1 0x1 DUP2 SLOAD ADD DUP1 DUP3 SSTORE DUP1 SWAP2 POP POP PUSH1 0x1 SWAP1 SUB SWAP1 PUSH0 MSTORE PUSH1 0x20 PUSH0 KECCAK256 ADD PUSH0 SWAP1 SWAP2 SWAP1 SWAP2 SWAP1 SWAP2 POP SSTORE PUSH1 0xA PUSH0 DUP1 SLOAD SWAP1 POP LT PUSH2 0x230 JUMPI PUSH1 0x40 MLOAD PUSH32 0x8C379A000000000000000000000000000000000000000000000000000000000 DUP2 MSTORE PUSH1 0x4 ADD PUSH2 0x227 SWAP1 PUSH2 0x3E1 JUMP JUMPDEST PUSH1 0x40 MLOAD DUP1 SWAP2 SUB SWAP1 REVERT JUMPDEST PUSH0 DUP2 SWAP1 DUP1 PUSH1 0x1 DUP2 SLOAD ADD DUP1 DUP3 SSTORE DUP1 SWAP2 POP POP PUSH1 0x1 SWAP1 SUB SWAP1 PUSH0 MSTORE PUSH1 0x20 PUSH0 KECCAK256 ADD PUSH0 SWAP1 SWAP2 SWAP1 SWAP2 SWAP1 SWAP2 POP SSTORE POP POP POP JUMP JUMPDEST PUSH1 0xA DUP2 JUMP JUMPDEST PUSH0 PUSH0 DUP1 SLOAD SWAP1 POP SWAP1 POP SWAP1 JUMP JUMPDEST PUSH0 DUP2 DUP2 SLOAD DUP2 LT PUSH2 0x278 JUMPI PUSH0 DUP1 REVERT JUMPDEST SWAP1 PUSH0 MSTORE PUSH1 0x20 PUSH0 KECCAK256 ADD PUSH0 SWAP2 POP SWAP1 POP SLOAD DUP2 JUMP JUMPDEST PUSH0 PUSH0 DUP3 DUP2 SLOAD DUP2 LT PUSH2 0x29D JUMPI PUSH2 0x29C PUSH2 0x3FF JUMP JUMPDEST JUMPDEST SWAP1 PUSH0 MSTORE PUSH1 0x20 PUSH0 KECCAK256 ADD SLOAD SWAP1 POP SWAP2 SWAP1 POP JUMP JUMPDEST PUSH0 PUSH0 REVERT JUMPDEST PUSH0 DUP2 SWAP1 POP SWAP2 SWAP1 POP JUMP JUMPDEST PUSH2 0x2C3 DUP2 PUSH2 0x2B1 JUMP JUMPDEST DUP2 EQ PUSH2 0x2CD JUMPI PUSH0 PUSH0 REVERT JUMPDEST POP JUMP JUMPDEST PUSH0 DUP2 CALLDATALOAD SWAP1 POP PUSH2 0x2DE DUP2 PUSH2 0x2BA JUMP JUMPDEST SWAP3 SWAP2 POP POP JUMP JUMPDEST PUSH0 PUSH0 PUSH0 PUSH1 0x60 DUP5 DUP7 SUB SLT ISZERO PUSH2 0x2FB JUMPI PUSH2 0x2FA PUSH2 0x2AD JUMP JUMPDEST JUMPDEST PUSH0 PUSH2 0x308 DUP7 DUP3 DUP8 ADD PUSH2 0x2D0 JUMP JUMPDEST SWAP4 POP POP PUSH1 0x20 PUSH2 0x319 DUP7 DUP3 DUP8 ADD PUSH2 0x2D0 JUMP JUMPDEST SWAP3 POP POP PUSH1 0x40 PUSH2 0x32A DUP7 DUP3 DUP8 ADD PUSH2 0x2D0 JUMP JUMPDEST SWAP2 POP POP SWAP3 POP SWAP3 POP SWAP3 JUMP JUMPDEST PUSH2 0x33D DUP2 PUSH2 0x2B1 JUMP JUMPDEST DUP3 MSTORE POP POP JUMP JUMPDEST PUSH0 PUSH1 0x20 DUP3 ADD SWAP1 POP PUSH2 0x356 PUSH0 DUP4 ADD DUP5 PUSH2 0x334 JUMP JUMPDEST SWAP3 SWAP2 POP POP JUMP JUMPDEST PUSH0 PUSH1 0x20 DUP3 DUP5 SUB SLT ISZERO PUSH2 0x371 JUMPI PUSH2 0x370 PUSH2 0x2AD JUMP JUMPDEST JUMPDEST PUSH0 PUSH2 0x37E DUP5 DUP3 DUP6 ADD PUSH2 0x2D0 JUMP JUMPDEST SWAP2 POP POP SWAP3 SWAP2 POP POP JUMP JUMPDEST PUSH0 DUP3 DUP3 MSTORE PUSH1 0x20 DUP3 ADD SWAP1 POP SWAP3 SWAP2 POP POP JUMP JUMPDEST PUSH32 0x4D61782061727261792073697A65207265616368656400000000000000000000 PUSH0 DUP3 ADD MSTORE POP JUMP JUMPDEST PUSH0 PUSH2 0x3CB PUSH1 0x16 DUP4 PUSH2 0x387 JUMP JUMPDEST SWAP2 POP PUSH2 0x3D6 DUP3 PUSH2 0x397 JUMP JUMPDEST PUSH1 0x20 DUP3 ADD SWAP1 POP SWAP2 SWAP1 POP JUMP JUMPDEST PUSH0 PUSH1 0x20 DUP3 ADD SWAP1 POP DUP2 DUP2 SUB PUSH0 DUP4 ADD MSTORE PUSH2 0x3F8 DUP2 PUSH2 0x3BF JUMP JUMPDEST SWAP1 POP SWAP2 SWAP1 POP JUMP JUMPDEST PUSH32 0x4E487B7100000000000000000000000000000000000000000000000000000000 PUSH0 MSTORE PUSH1 0x32 PUSH1 0x4 MSTORE PUSH1 0x24 PUSH0 REVERT INVALID LOG2 PUSH5 0x6970667358 0x22 SLT KECCAK256 RETURN 0x2B SHL 0xEF PUSH24 0x35AD9A0700C2A8ADC7ED998F94A4C585B473B7109B470681 0xE CALLDATASIZE SIGNEXTEND PUSH5 0x736F6C6343 STOP ADDMOD 0x22 STOP CALLER "
				},
				"gasEstimates": {
					"creation": {
						"codeDepositCost": "224400",
						"executionCost": "267",
						"totalCost": "224667"
					},
					"external": {
						"MAX_LENGTH()": "325",
						"addMultipleValues(uint256,uint256,uint256)": "infinite",
						"getLength()": "2461",
						"getNumber(uint256)": "infinite",
						"numbers(uint256)": "infinite"
					}
				},
				"methodIdentifiers": {
					"MAX_LENGTH()": "a6f9885c",
					"addMultipleValues(uint256,uint256,uint256)": "08be540b",
					"getLength()": "be1c766b",
					"getNumber(uint256)": "fc563658",
					"numbers(uint256)": "d39fa233"
				}
			},
			"storageLayout": {
				"storage": [
					{
						"astId": 137,
						"contract": "Contracts/practical8.sol:DynamicArrayGrowthv",
						"label": "numbers",
						"offset": 0,
						"slot": "0",
						"type": "t_array(t_uint256)dyn_storage"
					}
				],
				"types": {
					"t_array(t_uint256)dyn_storage": {
						"base": "t_uint256",
						"encoding": "dynamic_array",
						"label": "uint256[]",
						"numberOfBytes": "32"
					},
					"t_uint256": {
						"encoding": "inplace",
						"label": "uint256",
						"numberOfBytes": "32"
					}
				}
			},
			"userdoc": {
				"kind": "user",
				"methods": {},
				"version": 1
			}
		}
	}
}