{
	"data": {
		"bytecode": {
			"linkReferences": {},
			"object": "6080604052348015600e575f5ffd5b50610b868061001c5f395ff3fe608060405234801561000f575f5ffd5b506004361061003f575f3560e01c8063832880e714610043578063a87430ba14610064578063acc8ac6c14610097575b5f5ffd5b61004b6100b3565b60405161005b949392919061055b565b60405180910390f35b61007e600480360381019061007991906105e0565b61022d565b60405161008e949392919061055b565b60405180910390f35b6100b160048036038101906100ac919061078b565b61030a565b005b60605f5f5f5f5f5f3373ffffffffffffffffffffffffffffffffffffffff1673ffffffffffffffffffffffffffffffffffffffff1681526020019081526020015f206040518060800160405290815f8201805461010f90610838565b80601f016020809104026020016040519081016040528092919081815260200182805461013b90610838565b80156101865780601f1061015d57610100808354040283529160200191610186565b820191905f5260205f20905b81548152906001019060200180831161016957829003601f168201915b5050505050815260200160018201548152602001600282015f9054906101000a900473ffffffffffffffffffffffffffffffffffffffff1673ffffffffffffffffffffffffffffffffffffffff1673ffffffffffffffffffffffffffffffffffffffff1681526020016002820160149054906101000a900460ff1615151515815250509050805f015181602001518260400151836060015194509450945094505090919293565b5f602052805f5260405f205f91509050805f01805461024b90610838565b80601f016020809104026020016040519081016040528092919081815260200182805461027790610838565b80156102c25780601f10610299576101008083540402835291602001916102c2565b820191905f5260205f20905b8154815290600101906020018083116102a557829003601f168201915b505050505090806001015490806002015f9054906101000a900473ffffffffffffffffffffffffffffffffffffffff16908060020160149054906101000a900460ff16905084565b3373ffffffffffffffffffffffffffffffffffffffff168273ffffffffffffffffffffffffffffffffffffffff1614610378576040517f08c379a000000000000000000000000000000000000000000000000000000000815260040161036f906108b2565b60405180910390fd5b60405180608001604052808581526020018481526020018373ffffffffffffffffffffffffffffffffffffffff1681526020018215158152505f5f3373ffffffffffffffffffffffffffffffffffffffff1673ffffffffffffffffffffffffffffffffffffffff1681526020019081526020015f205f820151815f0190816104009190610a81565b50602082015181600101556040820151816002015f6101000a81548173ffffffffffffffffffffffffffffffffffffffff021916908373ffffffffffffffffffffffffffffffffffffffff16021790555060608201518160020160146101000a81548160ff02191690831515021790555090505050505050565b5f81519050919050565b5f82825260208201905092915050565b8281835e5f83830152505050565b5f601f19601f8301169050919050565b5f6104bc8261047a565b6104c68185610484565b93506104d6818560208601610494565b6104df816104a2565b840191505092915050565b5f819050919050565b6104fc816104ea565b82525050565b5f73ffffffffffffffffffffffffffffffffffffffff82169050919050565b5f61052b82610502565b9050919050565b61053b81610521565b82525050565b5f8115159050919050565b61055581610541565b82525050565b5f6080820190508181035f83015261057381876104b2565b905061058260208301866104f3565b61058f6040830185610532565b61059c606083018461054c565b95945050505050565b5f604051905090565b5f5ffd5b5f5ffd5b6105bf81610521565b81146105c9575f5ffd5b50565b5f813590506105da816105b6565b92915050565b5f602082840312156105f5576105f46105ae565b5b5f610602848285016105cc565b91505092915050565b5f5ffd5b5f5ffd5b7f4e487b71000000000000000000000000000000000000000000000000000000005f52604160045260245ffd5b610649826104a2565b810181811067ffffffffffffffff8211171561066857610667610613565b5b80604052505050565b5f61067a6105a5565b90506106868282610640565b919050565b5f67ffffffffffffffff8211156106a5576106a4610613565b5b6106ae826104a2565b9050602081019050919050565b828183375f83830152505050565b5f6106db6106d68461068b565b610671565b9050828152602081018484840111156106f7576106f661060f565b5b6107028482856106bb565b509392505050565b5f82601f83011261071e5761071d61060b565b5b813561072e8482602086016106c9565b91505092915050565b610740816104ea565b811461074a575f5ffd5b50565b5f8135905061075b81610737565b92915050565b61076a81610541565b8114610774575f5ffd5b50565b5f8135905061078581610761565b92915050565b5f5f5f5f608085870312156107a3576107a26105ae565b5b5f85013567ffffffffffffffff8111156107c0576107bf6105b2565b5b6107cc8782880161070a565b94505060206107dd8782880161074d565b93505060406107ee878288016105cc565b92505060606107ff87828801610777565b91505092959194509250565b7f4e487b71000000000000000000000000000000000000000000000000000000005f52602260045260245ffd5b5f600282049050600182168061084f57607f821691505b6020821081036108625761086161080b565b5b50919050565b7f43616e206f6e6c7920736574206f776e2077616c6c65740000000000000000005f82015250565b5f61089c601783610484565b91506108a782610868565b602082019050919050565b5f6020820190508181035f8301526108c981610890565b9050919050565b5f819050815f5260205f209050919050565b5f6020601f8301049050919050565b5f82821b905092915050565b5f6008830261092c7fffffffffffffffffffffffffffffffffffffffffffffffffffffffffffffffff826108f1565b61093686836108f1565b95508019841693508086168417925050509392505050565b5f819050919050565b5f61097161096c610967846104ea565b61094e565b6104ea565b9050919050565b5f819050919050565b61098a83610957565b61099e61099682610978565b8484546108fd565b825550505050565b5f5f905090565b6109b56109a6565b6109c0818484610981565b505050565b5f5b828110156109e6576109db5f8284016109ad565b6001810190506109c7565b505050565b601f821115610a395782821115610a3857610a05816108d0565b610a0e836108e2565b610a17856108e2565b6020861015610a24575f90505b808301610a33828403826109c5565b505050505b5b505050565b5f82821c905092915050565b5f610a595f1984600802610a3e565b1980831691505092915050565b5f610a718383610a4a565b9150826002028217905092915050565b610a8a8261047a565b67ffffffffffffffff811115610aa357610aa2610613565b5b610aad8254610838565b610ab88282856109eb565b5f60209050601f831160018114610ae9575f8415610ad7578287015190505b610ae18582610a66565b865550610b48565b601f198416610af7866108d0565b5f5b82811015610b1e57848901518255600182019150602085019450602081019050610af9565b86831015610b3b5784890151610b37601f891682610a4a565b8355505b6001600288020188555050505b50505050505056fea264697066735822122017f3b2f5282f85904b37a84a63793003381245134eee5a0a87bac7536c83437c64736f6c63430008220033",
			"opcodes": "PUSH1 0x80 PUSH1 0x40 MSTORE CALLVALUE DUP1 ISZERO PUSH1 0xE JUMPI PUSH0 PUSH0 REVERT JUMPDEST POP PUSH2 0xB86 DUP1 PUSH2 0x1C PUSH0 CODECOPY PUSH0 RETURN INVALID PUSH1 0x80 PUSH1 0x40 MSTORE CALLVALUE DUP1 ISZERO PUSH2 0xF JUMPI PUSH0 PUSH0 REVERT JUMPDEST POP PUSH1 0x4 CALLDATASIZE LT PUSH2 0x3F JUMPI PUSH0 CALLDATALOAD PUSH1 0xE0 SHR DUP1 PUSH4 0x832880E7 EQ PUSH2 0x43 JUMPI DUP1 PUSH4 0xA87430BA EQ PUSH2 0x64 JUMPI DUP1 PUSH4 0xACC8AC6C EQ PUSH2 0x97 JUMPI JUMPDEST PUSH0 PUSH0 REVERT JUMPDEST PUSH2 0x4B PUSH2 0xB3 JUMP JUMPDEST PUSH1 0x40 MLOAD PUSH2 0x5B SWAP5 SWAP4 SWAP3 SWAP2 SWAP1 PUSH2 0x55B JUMP JUMPDEST PUSH1 0x40 MLOAD DUP1 SWAP2 SUB SWAP1 RETURN JUMPDEST PUSH2 0x7E PUSH1 0x4 DUP1 CALLDATASIZE SUB DUP2 ADD SWAP1 PUSH2 0x79 SWAP2 SWAP1 PUSH2 0x5E0 JUMP JUMPDEST PUSH2 0x22D JUMP JUMPDEST PUSH1 0x40 MLOAD PUSH2 0x8E SWAP5 SWAP4 SWAP3 SWAP2 SWAP1 PUSH2 0x55B JUMP JUMPDEST PUSH1 0x40 MLOAD DUP1 SWAP2 SUB SWAP1 RETURN JUMPDEST PUSH2 0xB1 PUSH1 0x4 DUP1 CALLDATASIZE SUB DUP2 ADD SWAP1 PUSH2 0xAC SWAP2 SWAP1 PUSH2 0x78B JUMP JUMPDEST PUSH2 0x30A JUMP JUMPDEST STOP JUMPDEST PUSH1 0x60 PUSH0 PUSH0 PUSH0 PUSH0 PUSH0 PUSH0 CALLER PUSH20 0xFFFFFFFFFFFFFFFFFFFFFFFFFFFFFFFFFFFFFFFF AND PUSH20 0xFFFFFFFFFFFFFFFFFFFFFFFFFFFFFFFFFFFFFFFF AND DUP2 MSTORE PUSH1 0x20 ADD SWAP1 DUP2 MSTORE PUSH1 0x20 ADD PUSH0 KECCAK256 PUSH1 0x40 MLOAD DUP1 PUSH1 0x80 ADD PUSH1 0x40 MSTORE SWAP1 DUP2 PUSH0 DUP3 ADD DUP1 SLOAD PUSH2 0x10F SWAP1 PUSH2 0x838 JUMP JUMPDEST DUP1 PUSH1 0x1F ADD PUSH1 0x20 DUP1 SWAP2 DIV MUL PUSH1 0x20 ADD PUSH1 0x40 MLOAD SWAP1 DUP2 ADD PUSH1 0x40 MSTORE DUP1 SWAP3 SWAP2 SWAP1 DUP2 DUP2 MSTORE PUSH1 0x20 ADD DUP3 DUP1 SLOAD PUSH2 0x13B SWAP1 PUSH2 0x838 JUMP JUMPDEST DUP1 ISZERO PUSH2 0x186 JUMPI DUP1 PUSH1 0x1F LT PUSH2 0x15D JUMPI PUSH2 0x100 DUP1 DUP4 SLOAD DIV MUL DUP4 MSTORE SWAP2 PUSH1 0x20 ADD SWAP2 PUSH2 0x186 JUMP JUMPDEST DUP3 ADD SWAP2 SWAP1 PUSH0 MSTORE PUSH1 0x20 PUSH0 KECCAK256 SWAP1 JUMPDEST DUP2 SLOAD DUP2 MSTORE SWAP1 PUSH1 0x1 ADD SWAP1 PUSH1 0x20 ADD DUP1 DUP4 GT PUSH2 0x169 JUMPI DUP3 SWAP1 SUB PUSH1 0x1F AND DUP3 ADD SWAP2 JUMPDEST POP POP POP POP POP DUP2 MSTORE PUSH1 0x20 ADD PUSH1 0x1 DUP3 ADD SLOAD DUP2 MSTORE PUSH1 0x20 ADD PUSH1 0x2 DUP3 ADD PUSH0 SWAP1 SLOAD SWAP1 PUSH2 0x100 EXP SWAP1 DIV PUSH20 0xFFFFFFFFFFFFFFFFFFFFFFFFFFFFFFFFFFFFFFFF AND PUSH20 0xFFFFFFFFFFFFFFFFFFFFFFFFFFFFFFFFFFFFFFFF AND PUSH20 0xFFFFFFFFFFFFFFFFFFFFFFFFFFFFFFFFFFFFFFFF AND DUP2 MSTORE PUSH1 0x20 ADD PUSH1 0x2 DUP3 ADD PUSH1 0x14 SWAP1 SLOAD SWAP1 PUSH2 0x100 EXP SWAP1 DIV PUSH1 0xFF AND ISZERO ISZERO ISZERO ISZERO DUP2 MSTORE POP POP SWAP1 POP DUP1 PUSH0 ADD MLOAD DUP2 PUSH1 0x20 ADD MLOAD DUP3 PUSH1 0x40 ADD MLOAD DUP4 PUSH1 0x60 ADD MLOAD SWAP5 POP SWAP5 POP SWAP5 POP SWAP5 POP POP SWAP1 SWAP2 SWAP3 SWAP4 JUMP JUMPDEST PUSH0 PUSH1 0x20 MSTORE DUP1 PUSH0 MSTORE PUSH1 0x40 PUSH0 KECCAK256 PUSH0 SWAP2 POP SWAP1 POP DUP1 PUSH0 ADD DUP1 SLOAD PUSH2 0x24B SWAP1 PUSH2 0x838 JUMP JUMPDEST DUP1 PUSH1 0x1F ADD PUSH1 0x20 DUP1 SWAP2 DIV MUL PUSH1 0x20 ADD PUSH1 0x40 MLOAD SWAP1 DUP2 ADD PUSH1 0x40 MSTORE DUP1 SWAP3 SWAP2 SWAP1 DUP2 DUP2 MSTORE PUSH1 0x20 ADD DUP3 DUP1 SLOAD PUSH2 0x277 SWAP1 PUSH2 0x838 JUMP JUMPDEST DUP1 ISZERO PUSH2 0x2C2 JUMPI DUP1 PUSH1 0x1F LT PUSH2 0x299 JUMPI PUSH2 0x100 DUP1 DUP4 SLOAD DIV MUL DUP4 MSTORE SWAP2 PUSH1 0x20 ADD SWAP2 PUSH2 0x2C2 JUMP JUMPDEST DUP3 ADD SWAP2 SWAP1 PUSH0 MSTORE PUSH1 0x20 PUSH0 KECCAK256 SWAP1 JUMPDEST DUP2 SLOAD DUP2 MSTORE SWAP1 PUSH1 0x1 ADD SWAP1 PUSH1 0x20 ADD DUP1 DUP4 GT PUSH2 0x2A5 JUMPI DUP3 SWAP1 SUB PUSH1 0x1F AND DUP3 ADD SWAP2 JUMPDEST POP POP POP POP POP SWAP1 DUP1 PUSH1 0x1 ADD SLOAD SWAP1 DUP1 PUSH1 0x2 ADD PUSH0 SWAP1 SLOAD SWAP1 PUSH2 0x100 EXP SWAP1 DIV PUSH20 0xFFFFFFFFFFFFFFFFFFFFFFFFFFFFFFFFFFFFFFFF AND SWAP1 DUP1 PUSH1 0x2 ADD PUSH1 0x14 SWAP1 SLOAD SWAP1 PUSH2 0x100 EXP SWAP1 DIV PUSH1 0xFF AND SWAP1 POP DUP5 JUMP JUMPDEST CALLER PUSH20 0xFFFFFFFFFFFFFFFFFFFFFFFFFFFFFFFFFFFFFFFF AND DUP3 PUSH20 0xFFFFFFFFFFFFFFFFFFFFFFFFFFFFFFFFFFFFFFFF AND EQ PUSH2 0x378 JUMPI PUSH1 0x40 MLOAD PUSH32 0x8C379A000000000000000000000000000000000000000000000000000000000 DUP2 MSTORE PUSH1 0x4 ADD PUSH2 0x36F SWAP1 PUSH2 0x8B2 JUMP JUMPDEST PUSH1 0x40 MLOAD DUP1 SWAP2 SUB SWAP1 REVERT JUMPDEST PUSH1 0x40 MLOAD DUP1 PUSH1 0x80 ADD PUSH1 0x40 MSTORE DUP1 DUP6 DUP2 MSTORE PUSH1 0x20 ADD DUP5 DUP2 MSTORE PUSH1 0x20 ADD DUP4 PUSH20 0xFFFFFFFFFFFFFFFFFFFFFFFFFFFFFFFFFFFFFFFF AND DUP2 MSTORE PUSH1 0x20 ADD DUP3 ISZERO ISZERO DUP2 MSTORE POP PUSH0 PUSH0 CALLER PUSH20 0xFFFFFFFFFFFFFFFFFFFFFFFFFFFFFFFFFFFFFFFF AND PUSH20 0xFFFFFFFFFFFFFFFFFFFFFFFFFFFFFFFFFFFFFFFF AND DUP2 MSTORE PUSH1 0x20 ADD SWAP1 DUP2 MSTORE PUSH1 0x20 ADD PUSH0 KECCAK256 PUSH0 DUP3 ADD MLOAD DUP2 PUSH0 ADD SWAP1 DUP2 PUSH2 0x400 SWAP2 SWAP1 PUSH2 0xA81 JUMP JUMPDEST POP PUSH1 0x20 DUP3 ADD MLOAD DUP2 PUSH1 0x1 ADD SSTORE PUSH1 0x40 DUP3 ADD MLOAD DUP2 PUSH1 0x2 ADD PUSH0 PUSH2 0x100 EXP DUP2 SLOAD DUP2 PUSH20 0xFFFFFFFFFFFFFFFFFFFFFFFFFFFFFFFFFFFFFFFF MUL NOT AND SWAP1 DUP4 PUSH20 0xFFFFFFFFFFFFFFFFFFFFFFFFFFFFFFFFFFFFFFFF AND MUL OR SWAP1 SSTORE POP PUSH1 0x60 DUP3 ADD MLOAD DUP2 PUSH1 0x2 ADD PUSH1 0x14 PUSH2 0x100 EXP DUP2 SLOAD DUP2 PUSH1 0xFF MUL NOT AND SWAP1 DUP4 ISZERO ISZERO MUL OR SWAP1 SSTORE POP SWAP1 POP POP POP POP POP POP JUMP JUMPDEST PUSH0 DUP2 MLOAD SWAP1 POP SWAP2 SWAP1 POP JUMP JUMPDEST PUSH0 DUP3 DUP3 MSTORE PUSH1 0x20 DUP3 ADD SWAP1 POP SWAP3 SWAP2 POP POP JUMP JUMPDEST DUP3 DUP2 DUP4 MCOPY PUSH0 DUP4 DUP4 ADD MSTORE POP POP POP JUMP JUMPDEST PUSH0 PUSH1 0x1F NOT PUSH1 0x1F DUP4 ADD AND SWAP1 POP SWAP2 SWAP1 POP JUMP JUMPDEST PUSH0 PUSH2 0x4BC DUP3 PUSH2 0x47A JUMP JUMPDEST PUSH2 0x4C6 DUP2 DUP6 PUSH2 0x484 JUMP JUMPDEST SWAP4 POP PUSH2 0x4D6 DUP2 DUP6 PUSH1 0x20 DUP7 ADD PUSH2 0x494 JUMP JUMPDEST PUSH2 0x4DF DUP2 PUSH2 0x4A2 JUMP JUMPDEST DUP5 ADD SWAP2 POP POP SWAP3 SWAP2 POP POP JUMP JUMPDEST PUSH0 DUP2 SWAP1 POP SWAP2 SWAP1 POP JUMP JUMPDEST PUSH2 0x4FC DUP2 PUSH2 0x4EA JUMP JUMPDEST DUP3 MSTORE POP POP JUMP JUMPDEST PUSH0 PUSH20 0xFFFFFFFFFFFFFFFFFFFFFFFFFFFFFFFFFFFFFFFF DUP3 AND SWAP1 POP SWAP2 SWAP1 POP JUMP JUMPDEST PUSH0 PUSH2 0x52B DUP3 PUSH2 0x502 JUMP JUMPDEST SWAP1 POP SWAP2 SWAP1 POP JUMP JUMPDEST PUSH2 0x53B DUP2 PUSH2 0x521 JUMP JUMPDEST DUP3 MSTORE POP POP JUMP JUMPDEST PUSH0 DUP2 ISZERO ISZERO SWAP1 POP SWAP2 SWAP1 POP JUMP JUMPDEST PUSH2 0x555 DUP2 PUSH2 0x541 JUMP JUMPDEST DUP3 MSTORE POP POP JUMP JUMPDEST PUSH0 PUSH1 0x80 DUP3 ADD SWAP1 POP DUP2 DUP2 SUB PUSH0 DUP4 ADD MSTORE PUSH2 0x573 DUP2 DUP8 PUSH2 0x4B2 JUMP JUMPDEST SWAP1 POP PUSH2 0x582 PUSH1 0x20 DUP4 ADD DUP7 PUSH2 0x4F3 JUMP JUMPDEST PUSH2 0x58F PUSH1 0x40 DUP4 ADD DUP6 PUSH2 0x532 JUMP JUMPDEST PUSH2 0x59C PUSH1 0x60 DUP4 ADD DUP5 PUSH2 0x54C JUMP JUMPDEST SWAP6 SWAP5 POP POP POP POP POP JUMP JUMPDEST PUSH0 PUSH1 0x40 MLOAD SWAP1 POP SWAP1 JUMP JUMPDEST PUSH0 PUSH0 REVERT JUMPDEST PUSH0 PUSH0 REVERT JUMPDEST PUSH2 0x5BF DUP2 PUSH2 0x521 JUMP JUMPDEST DUP2 EQ PUSH2 0x5C9 JUMPI PUSH0 PUSH0 REVERT JUMPDEST POP JUMP JUMPDEST PUSH0 DUP2 CALLDATALOAD SWAP1 POP PUSH2 0x5DA DUP2 PUSH2 0x5B6 JUMP JUMPDEST SWAP3 SWAP2 POP POP JUMP JUMPDEST PUSH0 PUSH1 0x20 DUP3 DUP5 SUB SLT ISZERO PUSH2 0x5F5 JUMPI PUSH2 0x5F4 PUSH2 0x5AE JUMP JUMPDEST JUMPDEST PUSH0 PUSH2 0x602 DUP5 DUP3 DUP6 ADD PUSH2 0x5CC JUMP JUMPDEST SWAP2 POP POP SWAP3 SWAP2 POP POP JUMP JUMPDEST PUSH0 PUSH0 REVERT JUMPDEST PUSH0 PUSH0 REVERT JUMPDEST PUSH32 0x4E487B7100000000000000000000000000000000000000000000000000000000 PUSH0 MSTORE PUSH1 0x41 PUSH1 0x4 MSTORE PUSH1 0x24 PUSH0 REVERT JUMPDEST PUSH2 0x649 DUP3 PUSH2 0x4A2 JUMP JUMPDEST DUP2 ADD DUP2 DUP2 LT PUSH8 0xFFFFFFFFFFFFFFFF DUP3 GT OR ISZERO PUSH2 0x668 JUMPI PUSH2 0x667 PUSH2 0x613 JUMP JUMPDEST JUMPDEST DUP1 PUSH1 0x40 MSTORE POP POP POP JUMP JUMPDEST PUSH0 PUSH2 0x67A PUSH2 0x5A5 JUMP JUMPDEST SWAP1 POP PUSH2 0x686 DUP3 DUP3 PUSH2 0x640 JUMP JUMPDEST SWAP2 SWAP1 POP JUMP JUMPDEST PUSH0 PUSH8 0xFFFFFFFFFFFFFFFF DUP3 GT ISZERO PUSH2 0x6A5 JUMPI PUSH2 0x6A4 PUSH2 0x613 JUMP JUMPDEST JUMPDEST PUSH2 0x6AE DUP3 PUSH2 0x4A2 JUMP JUMPDEST SWAP1 POP PUSH1 0x20 DUP2 ADD SWAP1 POP SWAP2 SWAP1 POP JUMP JUMPDEST DUP3 DUP2 DUP4 CALLDATACOPY PUSH0 DUP4 DUP4 ADD MSTORE POP POP POP JUMP JUMPDEST PUSH0 PUSH2 0x6DB PUSH2 0x6D6 DUP5 PUSH2 0x68B JUMP JUMPDEST PUSH2 0x671 JUMP JUMPDEST SWAP1 POP DUP3 DUP2 MSTORE PUSH1 0x20 DUP2 ADD DUP5 DUP5 DUP5 ADD GT ISZERO PUSH2 0x6F7 JUMPI PUSH2 0x6F6 PUSH2 0x60F JUMP JUMPDEST JUMPDEST PUSH2 0x702 DUP5 DUP3 DUP6 PUSH2 0x6BB JUMP JUMPDEST POP SWAP4 SWAP3 POP POP POP JUMP JUMPDEST PUSH0 DUP3 PUSH1 0x1F DUP4 ADD SLT PUSH2 0x71E JUMPI PUSH2 0x71D PUSH2 0x60B JUMP JUMPDEST JUMPDEST DUP2 CALLDATALOAD PUSH2 0x72E DUP5 DUP3 PUSH1 0x20 DUP7 ADD PUSH2 0x6C9 JUMP JUMPDEST SWAP2 POP POP SWAP3 SWAP2 POP POP JUMP JUMPDEST PUSH2 0x740 DUP2 PUSH2 0x4EA JUMP JUMPDEST DUP2 EQ PUSH2 0x74A JUMPI PUSH0 PUSH0 REVERT JUMPDEST POP JUMP JUMPDEST PUSH0 DUP2 CALLDATALOAD SWAP1 POP PUSH2 0x75B DUP2 PUSH2 0x737 JUMP JUMPDEST SWAP3 SWAP2 POP POP JUMP JUMPDEST PUSH2 0x76A DUP2 PUSH2 0x541 JUMP JUMPDEST DUP2 EQ PUSH2 0x774 JUMPI PUSH0 PUSH0 REVERT JUMPDEST POP JUMP JUMPDEST PUSH0 DUP2 CALLDATALOAD SWAP1 POP PUSH2 0x785 DUP2 PUSH2 0x761 JUMP JUMPDEST SWAP3 SWAP2 POP POP JUMP JUMPDEST PUSH0 PUSH0 PUSH0 PUSH0 PUSH1 0x80 DUP6 DUP8 SUB SLT ISZERO PUSH2 0x7A3 JUMPI PUSH2 0x7A2 PUSH2 0x5AE JUMP JUMPDEST JUMPDEST PUSH0 DUP6 ADD CALLDATALOAD PUSH8 0xFFFFFFFFFFFFFFFF DUP2 GT ISZERO PUSH2 0x7C0 JUMPI PUSH2 0x7BF PUSH2 0x5B2 JUMP JUMPDEST JUMPDEST PUSH2 0x7CC DUP8 DUP3 DUP9 ADD PUSH2 0x70A JUMP JUMPDEST SWAP5 POP POP PUSH1 0x20 PUSH2 0x7DD DUP8 DUP3 DUP9 ADD PUSH2 0x74D JUMP JUMPDEST SWAP4 POP POP PUSH1 0x40 PUSH2 0x7EE DUP8 DUP3 DUP9 ADD PUSH2 0x5CC JUMP JUMPDEST SWAP3 POP POP PUSH1 0x60 PUSH2 0x7FF DUP8 DUP3 DUP9 ADD PUSH2 0x777 JUMP JUMPDEST SWAP2 POP POP SWAP3 SWAP6 SWAP2 SWAP5 POP SWAP3 POP JUMP JUMPDEST PUSH32 0x4E487B7100000000000000000000000000000000000000000000000000000000 PUSH0 MSTORE PUSH1 0x22 PUSH1 0x4 MSTORE PUSH1 0x24 PUSH0 REVERT JUMPDEST PUSH0 PUSH1 0x2 DUP3 DIV SWAP1 POP PUSH1 0x1 DUP3 AND DUP1 PUSH2 0x84F JUMPI PUSH1 0x7F DUP3 AND SWAP2 POP JUMPDEST PUSH1 0x20 DUP3 LT DUP2 SUB PUSH2 0x862 JUMPI PUSH2 0x861 PUSH2 0x80B JUMP JUMPDEST JUMPDEST POP SWAP2 SWAP1 POP JUMP JUMPDEST PUSH32 0x43616E206F6E6C7920736574206F776E2077616C6C6574000000000000000000 PUSH0 DUP3 ADD MSTORE POP JUMP JUMPDEST PUSH0 PUSH2 0x89C PUSH1 0x17 DUP4 PUSH2 0x484 JUMP JUMPDEST SWAP2 POP PUSH2 0x8A7 DUP3 PUSH2 0x868 JUMP JUMPDEST PUSH1 0x20 DUP3 ADD SWAP1 POP SWAP2 SWAP1 POP JUMP JUMPDEST PUSH0 PUSH1 0x20 DUP3 ADD SWAP1 POP DUP2 DUP2 SUB PUSH0 DUP4 ADD MSTORE PUSH2 0x8C9 DUP2 PUSH2 0x890 JUMP JUMPDEST SWAP1 POP SWAP2 SWAP1 POP JUMP JUMPDEST PUSH0 DUP2 SWAP1 POP DUP2 PUSH0 MSTORE PUSH1 0x20 PUSH0 KECCAK256 SWAP1 POP SWAP2 SWAP1 POP JUMP JUMPDEST PUSH0 PUSH1 0x20 PUSH1 0x1F DUP4 ADD DIV SWAP1 POP SWAP2 SWAP1 POP JUMP JUMPDEST PUSH0 DUP3 DUP3 SHL SWAP1 POP SWAP3 SWAP2 POP POP JUMP JUMPDEST PUSH0 PUSH1 0x8 DUP4 MUL PUSH2 0x92C PUSH32 0xFFFFFFFFFFFFFFFFFFFFFFFFFFFFFFFFFFFFFFFFFFFFFFFFFFFFFFFFFFFFFFFF DUP3 PUSH2 0x8F1 JUMP JUMPDEST PUSH2 0x936 DUP7 DUP4 PUSH2 0x8F1 JUMP JUMPDEST SWAP6 POP DUP1 NOT DUP5 AND SWAP4 POP DUP1 DUP7 AND DUP5 OR SWAP3 POP POP POP SWAP4 SWAP3 POP POP POP JUMP JUMPDEST PUSH0 DUP2 SWAP1 POP SWAP2 SWAP1 POP JUMP JUMPDEST PUSH0 PUSH2 0x971 PUSH2 0x96C PUSH2 0x967 DUP5 PUSH2 0x4EA JUMP JUMPDEST PUSH2 0x94E JUMP JUMPDEST PUSH2 0x4EA JUMP JUMPDEST SWAP1 POP SWAP2 SWAP1 POP JUMP JUMPDEST PUSH0 DUP2 SWAP1 POP SWAP2 SWAP1 POP JUMP JUMPDEST PUSH2 0x98A DUP4 PUSH2 0x957 JUMP JUMPDEST PUSH2 0x99E PUSH2 0x996 DUP3 PUSH2 0x978 JUMP JUMPDEST DUP5 DUP5 SLOAD PUSH2 0x8FD JUMP JUMPDEST DUP3 SSTORE POP POP POP POP JUMP JUMPDEST PUSH0 PUSH0 SWAP1 POP SWAP1 JUMP JUMPDEST PUSH2 0x9B5 PUSH2 0x9A6 JUMP JUMPDEST PUSH2 0x9C0 DUP2 DUP5 DUP5 PUSH2 0x981 JUMP JUMPDEST POP POP POP JUMP JUMPDEST PUSH0 JUMPDEST DUP3 DUP2 LT ISZERO PUSH2 0x9E6 JUMPI PUSH2 0x9DB PUSH0 DUP3 DUP5 ADD PUSH2 0x9AD JUMP JUMPDEST PUSH1 0x1 DUP2 ADD SWAP1 POP PUSH2 0x9C7 JUMP JUMPDEST POP POP POP JUMP JUMPDEST PUSH1 0x1F DUP3 GT ISZERO PUSH2 0xA39 JUMPI DUP3 DUP3 GT ISZERO PUSH2 0xA38 JUMPI PUSH2 0xA05 DUP2 PUSH2 0x8D0 JUMP JUMPDEST PUSH2 0xA0E DUP4 PUSH2 0x8E2 JUMP JUMPDEST PUSH2 0xA17 DUP6 PUSH2 0x8E2 JUMP JUMPDEST PUSH1 0x20 DUP7 LT ISZERO PUSH2 0xA24 JUMPI PUSH0 SWAP1 POP JUMPDEST DUP1 DUP4 ADD PUSH2 0xA33 DUP3 DUP5 SUB DUP3 PUSH2 0x9C5 JUMP JUMPDEST POP POP POP POP JUMPDEST JUMPDEST POP POP POP JUMP JUMPDEST PUSH0 DUP3 DUP3 SHR SWAP1 POP SWAP3 SWAP2 POP POP JUMP JUMPDEST PUSH0 PUSH2 0xA59 PUSH0 NOT DUP5 PUSH1 0x8 MUL PUSH2 0xA3E JUMP JUMPDEST NOT DUP1 DUP4 AND SWAP2 POP POP SWAP3 SWAP2 POP POP JUMP JUMPDEST PUSH0 PUSH2 0xA71 DUP4 DUP4 PUSH2 0xA4A JUMP JUMPDEST SWAP2 POP DUP3 PUSH1 0x2 MUL DUP3 OR SWAP1 POP SWAP3 SWAP2 POP POP JUMP JUMPDEST PUSH2 0xA8A DUP3 PUSH2 0x47A JUMP JUMPDEST PUSH8 0xFFFFFFFFFFFFFFFF DUP2 GT ISZERO PUSH2 0xAA3 JUMPI PUSH2 0xAA2 PUSH2 0x613 JUMP JUMPDEST JUMPDEST PUSH2 0xAAD DUP3 SLOAD PUSH2 0x838 JUMP JUMPDEST PUSH2 0xAB8 DUP3 DUP3 DUP6 PUSH2 0x9EB JUMP JUMPDEST PUSH0 PUSH1 0x20 SWAP1 POP PUSH1 0x1F DUP4 GT PUSH1 0x1 DUP2 EQ PUSH2 0xAE9 JUMPI PUSH0 DUP5 ISZERO PUSH2 0xAD7 JUMPI DUP3 DUP8 ADD MLOAD SWAP1 POP JUMPDEST PUSH2 0xAE1 DUP6 DUP3 PUSH2 0xA66 JUMP JUMPDEST DUP7 SSTORE POP PUSH2 0xB48 JUMP JUMPDEST PUSH1 0x1F NOT DUP5 AND PUSH2 0xAF7 DUP7 PUSH2 0x8D0 JUMP JUMPDEST PUSH0 JUMPDEST DUP3 DUP2 LT ISZERO PUSH2 0xB1E JUMPI DUP5 DUP10 ADD MLOAD DUP3 SSTORE PUSH1 0x1 DUP3 ADD SWAP2 POP PUSH1 0x20 DUP6 ADD SWAP5 POP PUSH1 0x20 DUP2 ADD SWAP1 POP PUSH2 0xAF9 JUMP JUMPDEST DUP7 DUP4 LT ISZERO PUSH2 0xB3B JUMPI DUP5 DUP10 ADD MLOAD PUSH2 0xB37 PUSH1 0x1F DUP10 AND DUP3 PUSH2 0xA4A JUMP JUMPDEST DUP4 SSTORE POP JUMPDEST PUSH1 0x1 PUSH1 0x2 DUP9 MUL ADD DUP9 SSTORE POP POP POP JUMPDEST POP POP POP POP POP POP JUMP INVALID LOG2 PUSH5 0x6970667358 0x22 SLT KECCAK256 OR RETURN 0xB2 CREATE2 0x28 0x2F DUP6 SWAP1 0x4B CALLDATACOPY 0xA8 BLOBBASEFEE PUSH4 0x79300338 SLT GASLIMIT SGT 0x4E RETURNCONTRACT 0x5A EXP DUP8 0xBA 0xC7 MSTORE8 PUSH13 0x83437C64736F6C634300082200 CALLER "
		},
		"gasEstimates": {
			"creation": {
				"codeDepositCost": "590000",
				"executionCost": "623",
				"totalCost": "590623"
			},
			"external": {
				"getUser()": "infinite",
				"storeUser(string,uint256,address,bool)": "infinite",
				"users(address)": "infinite"
			}
		},
		"methodIdentifiers": {
			"getUser()": "832880e7",
			"storeUser(string,uint256,address,bool)": "acc8ac6c",
			"users(address)": "a87430ba"
		}
	},
	"abi": [
		{
			"inputs": [],
			"name": "getUser",
			"outputs": [
				{
					"internalType": "string",
					"name": "",
					"type": "string"
				},
				{
					"internalType": "uint256",
					"name": "",
					"type": "uint256"
				},
				{
					"internalType": "address",
					"name": "",
					"type": "address"
				},
				{
					"internalType": "bool",
					"name": "",
					"type": "bool"
				}
			],
			"stateMutability": "view",
			"type": "function"
		},
		{
			"inputs": [
				{
					"internalType": "string",
					"name": "_name",
					"type": "string"
				},
				{
					"internalType": "uint256",
					"name": "_age",
					"type": "uint256"
				},
				{
					"internalType": "address",
					"name": "_wallet",
					"type": "address"
				},
				{
					"internalType": "bool",
					"name": "_isActive",
					"type": "bool"
				}
			],
			"name": "storeUser",
			"outputs": [],
			"stateMutability": "nonpayable",
			"type": "function"
		},
		{
			"inputs": [
				{
					"internalType": "address",
					"name": "",
					"type": "address"
				}
			],
			"name": "users",
			"outputs": [
				{
					"internalType": "string",
					"name": "name",
					"type": "string"
				},
				{
					"internalType": "uint256",
					"name": "age",
					"type": "uint256"
				},
				{
					"internalType": "address",
					"name": "wallet",
					"type": "address"
				},
				{
					"internalType": "bool",
					"name": "isActive",
					"type": "bool"
				}
			],
			"stateMutability": "view",
			"type": "function"
		}
	]
}